:020000040000FA
:100000000C945D000C9485000C9485000C94850084
:100010000C9485000C9485000C9485000C9485004C
:100020000C9485000C9485000C9485000C9485003C
:100030000C9485000C9485000C9485000C9485002C
:100040000C94A6020C9485000C9485000C948500F9
:100050000C9485000C9485000C9485000C9485000C
:100060000C9485000C94850000000008000201003B
:100070000003040700000000000000000000000072
:10008000250028002B0000000000240027002A0083
:10009000040404040404040402020202020203032E
:1000A0000303030301020408102040800102040836
:1000B0001020010204081020D40311241FBECFEF2A
:1000C000D8E0DEBFCDBF11E0A0E0B1E0E2E2FBE0AE
:1000D00002C005900D92AA37B107D9F721E0AAE72F
:1000E000B1E001C01D92AB39B207E1F710E0CDE5F8
:1000F000D0E004C02197FE010E948905CC35D107CC
:10010000C9F70E94F0020C948F050C94000090E057
:10011000FC01EC55FF4F249180579F4FFC018491C7
:10012000882399F090E0880F991FFC01EA57FF4F50
:10013000A591B491FC01E458FF4F859194918FB73C
:10014000F894EC91E22BEC938FBF0895AF92BF929D
:10015000CF92DF92EF92FF920F931F93CF93DF9393
:100160006C017B018B01040F151FEB015E01AE18C2
:10017000BF08C017D10759F06991D601ED91FC91E4
:100180000190F081E02DC6010995892B79F7C50111
:10019000DF91CF911F910F91FF90EF90DF90CF9063
:1001A000BF90AF90089590E0FC01E859FF4F249173
:1001B000FC01EC55FF4F3491FC01E057FF4FE491F7
:1001C000EE23C9F0222339F0233001F1A8F42130C5
:1001D00019F1223029F1F0E0EE0FFF1FE458FF4F34
:1001E000A591B4918FB7F894EC91611126C0309528
:1001F0003E233C938FBF08952730A9F02830C9F0E3
:10020000243049F7809180008F7D03C08091800069
:100210008F7780938000DFCF84B58F7784BDDBCF6D
:1002200084B58F7DFBCF8091B0008F778093B00035
:10023000D2CF8091B0008F7DF9CF3E2BDACF3FB780
:10024000F89480917F0190918001A0918101B091FB
:10025000820126B5A89B05C02F3F19F00196A11D6C
:10026000B11D3FBFBA2FA92F982F8827BC01CD0100
:10027000620F711D811D911D42E0660F771F881F5F
:10028000991F4A95D1F70895089590E080E0089568
:10029000FC0101900020E9F73197AF01481B590B91
:1002A000BC0183E891E00C94A600CF93DF93EC01AE
:1002B00060E08E810E94D30061E08E810E94D300B5
:1002C00060E08E810E94D3008BE891E00197F1F706
:1002D000DF91CF910895CF92DF92EF92FF920F932B
:1002E0001F93CF93DF936C017C0187E0E80EF11C34
:1002F000D0E0C0E0062F10E0B8010C2E02C07595CA
:1003000067950A94E2F76170F70181917F010E947D
:10031000D3002196C430D10579F7C601DF91CF9182
:100320001F910F91FF90EF90DF90CF900C945501AB
:10033000CF92DF92EF92FF920F931F93CF93DF93B1
:10034000EC01F62E642F8C810E94D3008D818F3FAB
:1003500019F060E00E94D3000F2D10E08F8584FF1C
:1003600025C06E0187E0C80ED11CF12CE12CB8012C
:100370000E2C02C0759567950A94E2F76170F6013C
:1003800081916F010E94D300FFEFEF1AFF0A88E00E
:10039000E816F10461F7CE01DF91CF911F910F9123
:1003A000FF90EF90DF90CF900C945501B80184E05E
:1003B000759567958A95E1F7CE010E946B016F2DC7
:1003C000CE01DF91CF911F910F91FF90EF90DF90C1
:1003D000CF900C946B0140E0682F83E891E00C947F
:1003E0009801CF93DF93613029F09091920198604A
:1003F00090939201609396011092970190E49093EC
:10040000980180939901805C80939A018091870183
:100410000E948700809188018F3F11F00E94870021
:10042000809189010E948700C3E8D1E09E01235892
:1004300031408091920184FD0AC084E090E02196D1
:10044000281739073CF48E810E948700EFCF88E09F
:1004500090E0F5CF8BE39DE00197F1F760E08091AC
:1004600087010E94D30060E0809189010E94D3003F
:10047000809188018F3F19F060E00E94D300809145
:10048000920184FD39C063E083E891E00E946B0132
:10049000CBE4D6E4CE010197F1F763E083E891E085
:1004A0000E946B012197F1F763E083E891E00E94DD
:1004B0006B0183E592E00197F1F762E083E891E058
:1004C0000E946B018091920180620E94EB0184E0A6
:1004D000809393018CE00E94EB0181E00E94EB018C
:1004E0008BE39FE10197F1F782E08093940186E02E
:1004F000DF91CF910C94EB0180620E94EB018BE4C1
:1005000096E40197F1F78091920180620E94EB01DD
:1005100083E592E00197F1F78091920180620E9459
:10052000EB01D0CF90919601891710F08FEF890FD2
:10053000E82FF0E0ED57FE4F848980680C94EB01C2
:1005400041E00E94980181E090E008951F920F928F
:100550000FB60F9211242F933F938F939F93AF93D6
:10056000BF9380917B0190917C01A0917D01B0911E
:100570007E0130917A0123E0230F2D3758F5019643
:10058000A11DB11D20937A0180937B0190937C0182
:10059000A0937D01B0937E0180917F0190918001B5
:1005A000A0918101B09182010196A11DB11D80939E
:1005B0007F0190938001A0938101B0938201BF914C
:1005C000AF919F918F913F912F910F900FBE0F9000
:1005D0001F90189526E8230F0296A11DB11DD2CFBA
:1005E000789484B5826084BD84B5816084BD85B50E
:1005F000826085BD85B5816085BD80916E0081601A
:1006000080936E00109281008091810082608093BF
:1006100081008091810081608093810080918000C1
:100620008160809380008091B10084608093B100EC
:100630008091B00081608093B00080917A008460E6
:1006400080937A0080917A00826080937A00809112
:100650007A00816080937A0080917A00806880932C
:100660007A001092C1008FE00E94870080E10E9412
:10067000870064E084E10E94F10180E00E94920220
:100680008CE091E00E94480181E00E9492028EE19C
:1006900091E00E94480110E4C0E0D0E010937C009B
:1006A00080917A00806480937A0080917A0086FD40
:1006B000FCCF8091780060917900762F682F072E0B
:1006C000000C880B990B0E94670420E030E040EAA0
:1006D00050E40E94F80420E030EC4FE754E40E941C
:1006E000F30320E030E040EA50E40E94F80420E008
:1006F00030E040E051E40E94F30487FD40C061E037
:100700008FE00E94D30060E080E10E94D30082E08D
:100710000E9492028DE291E00E94480183E00E94D3
:10072000920280E491E00E9448010E941F016B0147
:100730007C0188EC882E912CA12CB12C0E941F01E9
:100740006C197D098E099F09683E734081059105EA
:10075000A8F321E0821A9108A108B10888EEC80E1A
:1007600083E0D81EE11CF11C81149104A104B104A2
:1007700029F7209709F492CF0E9400008FCF60E004
:100780008FE00E94D30061E080E10E94D30082E00C
:100790000E94920283E591E00E94480183E00E945A
:1007A000920286E691E0BFCFE3E8F1E01382128285
:1007B00084E091E0918380838DE084838FEF858353
:1007C0008CE086838BE087838AE0808789E081875D
:1007D00088E082871386148615861686178661E060
:1007E00080E10C94F1010E9407040C94B9040E946A
:1007F000B20458F00E94AB0440F029F45F3F29F0A6
:100800000C94A20451110C94ED040C94A8040E94C1
:10081000CA0468F39923B1F3552391F3951B550B43
:10082000BB27AA2762177307840738F09F5F5F4FC3
:10083000220F331F441FAA1FA9F335D00E2E3AF002
:10084000E0E832D091505040E695001CCAF72BD01A
:10085000FE2F29D0660F771F881FBB1F261737076B
:100860004807AB07B0E809F0BB0B802DBF01FF279D
:1008700093585F4F3AF09E3F510578F00C94A204D4
:100880000C94ED045F3FE4F3983ED4F3869577959E
:100890006795B795F7959F5FC9F7880F911D969556
:1008A000879597F90895E1E0660F771F881FBB1FB2
:1008B000621773078407BA0720F0621B730B840B5F
:1008C000BA0BEE1F88F7E0950895E89409C097FBEE
:1008D0003EF490958095709561957F4F8F4F9F4F17
:1008E0009923A9F0F92F96E9BB279395F69587955B
:1008F00077956795B795F111F8CFFAF4BB0F11F41E
:1009000060FF1BC06F5F7F4F8F4F9F4F16C08823C4
:1009100011F096E911C0772321F09EE8872F762FFA
:1009200005C0662371F096E8862F70E060E02AF03B
:100930009A95660F771F881FDAF7880F9695879527
:1009400097F9089597F99F6780E870E060E008954F
:100950009FEF80EC089500240A94161617061806D7
:100960000906089500240A941216130614060506B3
:100970000895092E0394000C11F4882352F0BB0F44
:1009800040F4BF2B11F460FF04C06F5F7F4F8F4FA7
:100990009F4F089557FD9058440F551F59F05F3FE2
:1009A00071F04795880F97FB991F61F09F3F79F091
:1009B00087950895121613061406551FF2CF469513
:1009C000F1DF08C0161617061806991FF1CF869595
:1009D0007105610508940895E894BB276627772779
:1009E000CB0197F908950E94650508F48FEF0895EB
:1009F0000E940B050C94B9040E94AB0438F00E94CD
:100A0000B20420F0952311F00C94A2040C94A804D5
:100A100011240C94ED040E94CA0470F3959FC1F355
:100A2000950F50E0551F629FF001729FBB27F00D9C
:100A3000B11D639FAA27F00DB11DAA1F649F6627F1
:100A4000B00DA11D661F829F2227B00DA11D621F40
:100A5000739FB00DA11D621F839FA00D611D221FFA
:100A6000749F3327A00D611D231F849F600D211DDE
:100A7000822F762F6A2F11249F5750409AF0F1F061
:100A800088234AF0EE0FFF1FBB1F661F771F881FCA
:100A900091505040A9F79E3F510580F00C94A2045C
:100AA0000C94ED045F3FE4F3983ED4F3869577957C
:100AB0006795B795F795E7959F5FC1F7FE2B880F70
:100AC000911D9695879597F90895990F0008550FF0
:100AD000AA0BE0E8FEEF16161706E807F907C0F0C4
:100AE00012161306E407F50798F0621B730B840BCC
:100AF000950B39F40A2661F0232B242B252B21F4A6
:100B000008950A2609F4A140A6958FEF811D811D45
:100B10000895EE0FFF1F0590F491E02D0994F894CD
:100B2000FFCF00000000A002A600450144012020E4
:100B3000204155544F205452414E534645522000B7
:100B40002020202020205357495443482020004D86
:100B500041494E20535550504C593A204F4E202079
:100B6000200047454E455241544F52203A204F46AF
:100B700046202020004D41494E20535550504C599D
:100B80003A204F464620200047454E455241544F9B
:0C0B900052203A204F4E20202020000070
:107E0000112484B714BE81FFF0D085E080938100F7
:107E100082E08093C00088E18093C10086E0809377
:107E2000C20080E18093C4008EE0C9D0259A86E02C
:107E300020E33CEF91E0309385002093840096BBD3
:107E4000B09BFECF1D9AA8958150A9F7CC24DD24C4
:107E500088248394B5E0AB2EA1E19A2EF3E0BF2EE7
:107E6000A2D0813461F49FD0082FAFD0023811F036
:107E7000013811F484E001C083E08DD089C08234E0
:107E800011F484E103C0853419F485E0A6D080C0E4
:107E9000853579F488D0E82EFF2485D0082F10E0AE
:107EA000102F00270E291F29000F111F8ED06801E7
:107EB0006FC0863521F484E090D080E0DECF843638
:107EC00009F040C070D06FD0082F6DD080E0C81688
:107ED00080E7D80618F4F601B7BEE895C0E0D1E017
:107EE00062D089930C17E1F7F0E0CF16F0E7DF06D8
:107EF00018F0F601B7BEE89568D007B600FCFDCFD4
:107F0000A601A0E0B1E02C9130E011968C91119780
:107F100090E0982F8827822B932B1296FA010C0160
:107F200087BEE89511244E5F5F4FF1E0A038BF0790
:107F300051F7F601A7BEE89507B600FCFDCF97BE46
:107F4000E89526C08437B1F42ED02DD0F82E2BD052
:107F50003CD0F601EF2C8F010F5F1F4F84911BD097
:107F6000EA94F801C1F70894C11CD11CFA94CF0C13
:107F7000D11C0EC0853739F428D08EE10CD085E9AC
:107F80000AD08FE07ACF813511F488E018D01DD067
:107F900080E101D065CF982F8091C00085FFFCCF94
:107FA0009093C60008958091C00087FFFCCF809118
:107FB000C00084FD01C0A8958091C6000895E0E648
:107FC000F0E098E1908380830895EDDF803219F02E
:107FD00088E0F5DFFFCF84E1DECF1F93182FE3DFCA
:107FE0001150E9F7F2DF1F91089580E0E8DFEE27F6
:047FF000FF270994CA
:027FFE00040479
:00000001FF
